:1000000071C0000081C000007FC000007DC0000002
:100010007BC0000079C0000077C0000075C0000000
:1000200073C0000071C000006FC000006DC0000010
:100030006BC0000069C0000067C0000065C0000020
:1000400063C0000061C000005FC000005DC0000030
:100050005BC0000059C0000057C0000055C0000040
:1000600053C0000051C000004FC000004DC0000050
:100070004BC0000005C3000047C0000045C00000A1
:1000800043C0000041C000003FC000003DC0000070
:100090003BC0000039C0000037C0000035C0000080
:1000A00033C0000031C000002FC000002DC0000090
:1000B0002BC0000029C0000027C0000025C00000A0
:1000C00023C0000021C000001FC000001DC00000B0
:1000D0001BC0000019C0000017C0000015C00000C0
:1000E00013C0000011241FBECFEFD1E2DEBFCDBF91
:1000F00000E00CBF22E0A0E0B2E001C01D92AC31F4
:10010000B207E1F75DD16FC47BCF8FEF81B908955E
:10011000982F907F92B992B19E7F92B992B19D7FB4
:1001200092B992B1946092B9EFE3FCE93197F1F79B
:1001300000C0000092B19B7F92B9EFE3FCE93197D8
:10014000F1F700C00000F0E18F9FC001112482B9D7
:1001500082B18E7F82B982B18D7F82B982B1846093
:1001600082B98FE39CE90197F1F700C0000082B1EA
:100170008B7F82B9EFE3FCE93197F1F700C0000013
:100180000895982F907F92B992B1916092B992B1EF
:100190009D7F92B992B1946092B9EFE3FCE93197F7
:1001A000F1F700C0000092B19B7F92B9EFE3FCE948
:1001B0003197F1F700C00000F0E18F9FC0011124DA
:1001C00082B982B1816082B982B18D7F82B982B1F8
:1001D000846082B98FE39CE90197F1F700C00000C9
:1001E00082B18B7F82B9EFE3FCE93197F1F700C070
:1001F0000000089582E08CDF88E28ADF8EE088DFED
:1002000081E086CF0895FC0120813181A9014F71E1
:100210005527452B39F41182108281E079DF80E87F
:1002200077CF08952F703327232B11F480EC70CFF4
:10023000089589B1817090E008951092C50087E615
:100240008093C40088E08093C10086E08093C20060
:10025000789408959091C00095FFFCCF8093C600DC
:1002600008958AB18E7F8AB98AB182608AB94DCFEA
:100270000895ECE7F0E090819F70892B80831092C5
:100280007B00EAE7F0E08FEE8083808180628083EC
:1002900080818860808380818064808378940895E1
:1002A000BF92CF92DF92EF92FF920F931F93CF9363
:1002B000DF931F921F92CDB7DEB7082FD92E162FCE
:1002C000C72E1A8219828091120290911302892BF3
:1002D000D9F4CE01019697DF80E81ADF86E551DF79
:1002E00082E74FDF8DE64DDF83E74BDF8DE349DFAC
:1002F00080EC0EDF89E445DF82E743DF8DE641DFF6
:1003000083E73FDF8DE33DDF86E090E09A838983DA
:10031000CE01019678DF86E8FBDE0F2EF8EEEF2E99
:10032000F3E0FF2EF02D13C0812F9C2DB70134D3A5
:10033000C82EB92E10E3160F812F23DF812F8ADFFD
:100340001C2DCB2CC7016AE070E026D37B011E1464
:100350001F0454F386E190E09A838983CE010196CD
:1003600052DF86ECD5DE0F2EF8EEEF2EF3E0FF2EF7
:10037000F02D11C0802F9D2DB7010ED3082FD92E3F
:1003800010E3160F812FFDDE812F64DFC7016AE0C5
:1003900070E002D37B011E141F0464F381E090E03F
:1003A00090931302809312020F900F90DF91CF91E0
:1003B0001F910F91FF90EF90DF90CF90BF90089525
:1003C00050DF18DF8FEF81B982E090E052DF83E0E9
:1003D00090E04FDF32DF80910C0290910D02892B6B
:1003E000D1F3609118027091190280911A029091D4
:1003F0001B0256DF1EDF892B21F08BB182608BB987
:1004000003C08BB18D7F8BB910920D0210920C023C
:10041000E2CFCF92DF92EF92FF92CF93DF93809162
:100420007800909179009093110280931002C0910E
:100430000A02D0910B02CD3281E0D8070CF44EC0F5
:1004400010920B0210920A02C0911402D091150270
:10045000BE016E5F7F4F072E000C880B990BE8D111
:10046000C0900402D0900502E0900602F0900702CE
:10047000A70196013ED188237CF0BE01625071092C
:10048000072E000C880B990BD3D19B01AC01C7013F
:10049000B6012FD1882394F481E090E090930D026F
:1004A00080930C0223EF34E045EB5FE3C701B60114
:1004B00024D18BD17093190260931802C701B60141
:1004C00084D170931502609314021092040210926A
:1004D000050210920602109207022AC060911002D3
:1004E00070911102072E000C880B990BA1D120915D
:1004F000040230910502409106025091070248D251
:1005000018168CF46091100270911102072E000CE5
:10051000880B990B8DD16093040270930502809330
:100520000602909307022196D0930B02C0930A0211
:10053000ECE7F0E08081807F82608083DF91CF9163
:10054000FF90EF90DF90CF900895CF92DF92EF92DF
:10055000FF92CF93DF9380917800909179009093F0
:100560000F0280930E02C0910802D0910902CC3292
:1005700081E0D8070CF44EC01092090210920802D4
:10058000C0911602D0911702BE016F5F7F4F072EF8
:10059000000C880B990B4CD1C0900002D090010246
:1005A000E0900202F0900302A7019601A2D08823F6
:1005B0007CF0BE0161507109072E000C880B990B6D
:1005C00037D19B01AC01C701B60193D0882394F4C5
:1005D00081E090E090930D0280930C0223EF34E0D1
:1005E00045EB5FE3C701B60188D0EFD070931B02E3
:1005F00060931A02C701B601E8D0709317026093A6
:100600001602109200021092010210920202109241
:1006100003022AC060910E0270910F02072E000C97
:10062000880B990B05D12091000230910102409175
:10063000020250910302ACD118168CF460910E02A4
:1006400070910F02072E000C880B990BF1D060936C
:10065000000270930102809302029093030221969C
:10066000D0930902C0930802EAE7F0E08081806439
:100670008083DF91CF91FF90EF90DF90CF9008952E
:100680001F920F920FB60F9211240BB60F922F9359
:100690003F934F935F936F937F938F939F93AF930A
:1006A000BF93EF93FF9380917C008F70833029F488
:1006B000B0DE82E090E0DDDD09C080917C008F70CB
:1006C000823021F442DF83E090E0D3DDFF91EF91AF
:1006D000BF91AF919F918F917F916F915F914F915A
:1006E0003F912F910F900BBE0F900FBE0F901F9058
:1006F0001895D9D008F481E008950CD00FC107D126
:1007000040F0FED030F021F45F3F19F0F0C05111FD
:1007100039C1F3C014D198F39923C9F35523B1F328
:10072000951B550BBB27AA2762177307840738F060
:100730009F5F5F4F220F331F441FAA1FA9F333D0BF
:100740000E2E3AF0E0E830D091505040E695001C73
:10075000CAF729D0FE2F27D0660F771F881FBB1F2F
:10076000261737074807AB07B0E809F0BB0B802D09
:10077000BF01FF2793585F4F2AF09E3F510568F055
:10078000B6C000C15F3FECF3983EDCF386957795E9
:100790006795B795F7959F5FC9F7880F911D969557
:1007A000879597F90895E1E0660F771F881FBB1FB3
:1007B000621773078407BA0720F0621B730B840B60
:1007C000BA0BEE1F88F7E095089504D06894B11134
:1007D000D9C00895BCD088F09F5790F0B92F9927C1
:1007E000B751A0F0D1F0660F771F881F991F1AF03C
:1007F000BA95C9F712C0B13081F0C3D0B1E0089505
:10080000C0C0672F782F8827B85F39F0B93FCCF385
:10081000869577956795B395D9F73EF49095809531
:10082000709561957F4F8F4F9F4F0895E89409C051
:1008300097FB3EF490958095709561957F4F8F4F13
:100840009F4F9923A9F0F92F96E9BB279395F69529
:10085000879577956795B795F111F8CFFAF4BB0FA7
:1008600011F460FF1BC06F5F7F4F8F4F9F4F16C00B
:10087000882311F096E911C0772321F09EE8872F95
:10088000762F05C0662371F096E8862F70E060E051
:100890002AF09A95660F771F881FDAF7880F9695CA
:1008A000879597F90895990F0008550FAA0BE0E86E
:1008B000FEEF16161706E807F907C0F01216130622
:1008C000E407F50798F0621B730B840B950B39F462
:1008D0000A2661F0232B242B252B21F408950A26C8
:1008E00009F4A140A6958FEF811D811D089597F908
:1008F0009F6780E870E060E008959FEF80EC0895C6
:1009000000240A94161617061806090608950024EE
:100910000A9412161306140605060895092E039468
:10092000000C11F4882352F0BB0F40F4BF2B11F4DC
:1009300060FF04C06F5F7F4F8F4F9F4F089557FD3B
:100940009058440F551F59F05F3F71F04795880F3D
:1009500097FB991F61F09F3F79F0879508951216D4
:1009600013061406551FF2CF4695F1DF08C0161680
:1009700017061806991FF1CF869571056105089431
:100980000895E894BB2766277727CB0197F9089548
:100990008ADF08F48FEF089597FB072E16F4009472
:1009A00006D077FD08D00BD007FC05D03EF490951B
:1009B00081959F4F0895709561957F4F0895AA1B6B
:1009C000BB1B51E107C0AA1FBB1FA617B70710F03A
:1009D000A61BB70B881F991F5A95A9F7809590956C
:0A09E000BC01CD010895F894FFCF8B
:00000001FF
